{
    "contractName": "Arbitrator",
    "abi": [
        {
            "inputs": [],
            "stateMutability": "payable",
            "type": "constructor"
        },
        {
            "anonymous": false,
            "inputs": [
                {
                    "indexed": true,
                    "internalType": "address",
                    "name": "freelancer",
                    "type": "address"
                },
                {
                    "indexed": false,
                    "internalType": "uint256",
                    "name": "amount",
                    "type": "uint256"
                },
                {
                    "indexed": false,
                    "internalType": "bytes32",
                    "name": "jobId",
                    "type": "bytes32"
                },
                {
                    "indexed": false,
                    "internalType": "uint256",
                    "name": "timestamp",
                    "type": "uint256"
                },
                {
                    "indexed": false,
                    "internalType": "string",
                    "name": "message",
                    "type": "string"
                }
            ],
            "name": "FundsReleased",
            "type": "event"
        },
        {
            "stateMutability": "payable",
            "type": "fallback"
        },
        {
            "inputs": [
                {
                    "internalType": "bytes32",
                    "name": "_jobId",
                    "type": "bytes32"
                }
            ],
            "name": "acceptJobContract",
            "outputs": [],
            "stateMutability": "payable",
            "type": "function"
        },
        {
            "inputs": [],
            "name": "arbitrator",
            "outputs": [
                {
                    "internalType": "address",
                    "name": "",
                    "type": "address"
                }
            ],
            "stateMutability": "view",
            "type": "function"
        },
        {
            "inputs": [
                {
                    "internalType": "bytes32",
                    "name": "_jobId",
                    "type": "bytes32"
                },
                {
                    "internalType": "uint256",
                    "name": "_amount",
                    "type": "uint256"
                }
            ],
            "name": "createJobContract",
            "outputs": [],
            "stateMutability": "payable",
            "type": "function"
        },
        {
            "inputs": [],
            "name": "escrowContractCount",
            "outputs": [
                {
                    "internalType": "uint256",
                    "name": "",
                    "type": "uint256"
                }
            ],
            "stateMutability": "view",
            "type": "function"
        },
        {
            "inputs": [
                {
                    "internalType": "bytes32",
                    "name": "",
                    "type": "bytes32"
                }
            ],
            "name": "escrowContracts",
            "outputs": [
                {
                    "internalType": "contract Escrow",
                    "name": "",
                    "type": "address"
                }
            ],
            "stateMutability": "view",
            "type": "function"
        },
        {
            "inputs": [],
            "name": "getArbitratorAddress",
            "outputs": [
                {
                    "internalType": "address",
                    "name": "",
                    "type": "address"
                }
            ],
            "stateMutability": "view",
            "type": "function"
        },
        {
            "inputs": [],
            "name": "getArbitratorBalance",
            "outputs": [
                {
                    "internalType": "uint256",
                    "name": "",
                    "type": "uint256"
                }
            ],
            "stateMutability": "view",
            "type": "function"
        },
        {
            "inputs": [
                {
                    "internalType": "bytes32",
                    "name": "jobId",
                    "type": "bytes32"
                }
            ],
            "name": "getClientAddress",
            "outputs": [
                {
                    "internalType": "address",
                    "name": "",
                    "type": "address"
                }
            ],
            "stateMutability": "view",
            "type": "function"
        },
        {
            "inputs": [
                {
                    "internalType": "bytes32",
                    "name": "jobId",
                    "type": "bytes32"
                }
            ],
            "name": "getEscrowContractState",
            "outputs": [
                {
                    "internalType": "uint256",
                    "name": "",
                    "type": "uint256"
                }
            ],
            "stateMutability": "view",
            "type": "function"
        },
        {
            "inputs": [
                {
                    "internalType": "bytes32",
                    "name": "_jobId",
                    "type": "bytes32"
                }
            ],
            "name": "getEscrowInfo",
            "outputs": [
                {
                    "internalType": "address",
                    "name": "clientAddress",
                    "type": "address"
                },
                {
                    "internalType": "address",
                    "name": "freelancerAddress",
                    "type": "address"
                },
                {
                    "internalType": "uint256",
                    "name": "currentAmount",
                    "type": "uint256"
                },
                {
                    "internalType": "uint256",
                    "name": "currentState",
                    "type": "uint256"
                },
                {
                    "internalType": "address",
                    "name": "currentArbitrator",
                    "type": "address"
                }
            ],
            "stateMutability": "view",
            "type": "function"
        },
        {
            "inputs": [
                {
                    "internalType": "bytes32",
                    "name": "_jobId",
                    "type": "bytes32"
                }
            ],
            "name": "getEscrowStatus",
            "outputs": [
                {
                    "internalType": "uint256",
                    "name": "",
                    "type": "uint256"
                }
            ],
            "stateMutability": "view",
            "type": "function"
        },
        {
            "inputs": [
                {
                    "internalType": "bytes32",
                    "name": "jobId",
                    "type": "bytes32"
                }
            ],
            "name": "getFreelancerAddress",
            "outputs": [
                {
                    "internalType": "address",
                    "name": "",
                    "type": "address"
                }
            ],
            "stateMutability": "view",
            "type": "function"
        },
        {
            "inputs": [],
            "name": "getJobCount",
            "outputs": [
                {
                    "internalType": "uint256",
                    "name": "",
                    "type": "uint256"
                }
            ],
            "stateMutability": "view",
            "type": "function"
        },
        {
            "inputs": [],
            "name": "jobContractCount",
            "outputs": [
                {
                    "internalType": "uint256",
                    "name": "",
                    "type": "uint256"
                }
            ],
            "stateMutability": "view",
            "type": "function"
        },
        {
            "inputs": [
                {
                    "internalType": "bytes32",
                    "name": "",
                    "type": "bytes32"
                }
            ],
            "name": "jobContracts",
            "outputs": [
                {
                    "internalType": "address",
                    "name": "freelancer",
                    "type": "address"
                },
                {
                    "internalType": "address",
                    "name": "client",
                    "type": "address"
                },
                {
                    "internalType": "uint256",
                    "name": "amount",
                    "type": "uint256"
                }
            ],
            "stateMutability": "view",
            "type": "function"
        },
        {
            "inputs": [
                {
                    "internalType": "bytes32",
                    "name": "_jobId",
                    "type": "bytes32"
                }
            ],
            "name": "refundEscrow",
            "outputs": [],
            "stateMutability": "nonpayable",
            "type": "function"
        },
        {
            "inputs": [
                {
                    "internalType": "bytes32",
                    "name": "_jobId",
                    "type": "bytes32"
                }
            ],
            "name": "rejectJobContract",
            "outputs": [],
            "stateMutability": "payable",
            "type": "function"
        },
        {
            "inputs": [
                {
                    "internalType": "bytes32",
                    "name": "_jobId",
                    "type": "bytes32"
                }
            ],
            "name": "releaseEscrow",
            "outputs": [],
            "stateMutability": "nonpayable",
            "type": "function"
        },
        {
            "stateMutability": "payable",
            "type": "receive"
        }
    ],
    "bytecode": "608060408190525f6001819055600455600280546001600160a01b03191633179055611029908161002e8239f3fe6080806040526004361015610011575b005b5f905f3560e01c9081631435125c14610a0c575080632c51efbb146109bb5780633c56f2d3146108f857806343fc7d0c146108db57806347aed508146107f65780634f47e357146107c35780635356d0ca1461073a5780636cc6cde114610113578063810734871461070557806386f4e3ce146106e95780638a4b1f48146106c25780639585e82d146105c9578063ac0ca0e0146104b2578063b02b4a2f14610494578063bf89fc611461031e578063cf1870a61461013c578063e0efefd9146101135763e5f399540361000f5734610110576020366003190112610110576020906004358152808252604060018060a01b0391205416604051908152f35b80fd5b50346101105780600319360112610110576002546040516001600160a01b039091168152602090f35b506020366003190112610110576004358082526003602052600260408320015434036102b35780825260036020818152604080852080546001600160a01b0319163317905583855282825280852060019081015485875284845282872054868852949093529085206002908101549182901b936001600160a01b039081169316918015908504909114171561029f5783855260036020526002604086200154928360011b938085046002149015171561028b576040519261050b928385019385851067ffffffffffffffff861117610277579185939160609593610ae98639835260208301526040820152030191f090811561026c57825281602052604082209060018060a01b03166bffffffffffffffffffffffff60a01b825416179055610266600154610ada565b60015580f35b6040513d84823e3d90fd5b634e487b7160e01b89526041600452602489fd5b634e487b7160e01b86526011600452602486fd5b634e487b7160e01b85526011600452602485fd5b60405162461bcd60e51b815260206004820152603760248201527f54686520616d6f756e74206465706f7369746564206d7573742062652065717560448201527f616c20746f2074686520657363726f7720616d6f756e740000000000000000006064820152608490fd5b503461011057602036600319011261011057600435808252600360205260408220600101546001600160a01b03163303610441578082526020829052604082205482906001600160a01b0316803b1561043d578180916004604051809481936369d8957560e01b83525af1801561026c57610428575b5081905260036020527fd116dfa92a8a3b40dce813c8a074b2d783f866441813fca7e8674c62705cac8160c060018060a01b03604085205416928085526003602052600260408620015490604051918252602082015242604082015260806060820152601c60808201527f46756e64732072656c656173656420746f20667265656c616e6365720000000060a0820152a280f35b8161043291610a26565b61043d57815f610394565b5080fd5b60405162461bcd60e51b815260206004820152602560248201527f4f6e6c792074686520636c69656e742063616e2072656c65617365207468652060448201526466756e647360d81b6064820152608490fd5b50346101105780600319360112610110576020600454604051908152f35b5060403660031901126101105760243580340361056757604051906060820182811067ffffffffffffffff8211176105535760409081528383523360208085019182528483019384526004803587526003909152918520935184546001600160a01b03199081166001600160a01b03928316178655915160018601805490931691161790559051600292909201919091555461054d90610ada565b60045580f35b634e487b7160e01b84526041600452602484fd5b60405162461bcd60e51b815260206004820152603460248201527f54686520616d6f756e74206465706f7369746564206d75737420626520657175604482015273185b081d1bc81d1a19481a9bd888185b5bdd5b9d60621b6064820152608490fd5b503461011057602036600319011261011057600480358252602082905260408083205490516307ab303360e51b81529160a09183919082906001600160a01b03165afa801561026c57829183849085928694610655575b50604080516001600160a01b039687168152918616602083015281019190915260608101919091529116608082015260a09150f35b94505050505060a0813d60a0116106ba575b8161067460a09383610a26565b8101031261043d5760a0915061068981610ac6565b9061069660208201610ac6565b916040820151916106ae608060608301519201610ac6565b9193929091925f610620565b3d9150610667565b50346101105760203660031901126101105760206106e1600435610a5c565b604051908152f35b5034610110578060031936011261011057602047604051908152f35b50346101105760203660031901126101105760209060043581526003825260016040818060a01b039220015416604051908152f35b5034610110576020366003190112610110576002546001600160a01b0316330361076b5760206106e1600435610a5c565b60405162461bcd60e51b815260206004820152602a60248201527f4f6e6c79207468652061726269747261746f722063616e2063616c6c207468696044820152693990333ab731ba34b7b760b11b6064820152608490fd5b503461011057602036600319011261011057602090600435815260038252604060018060a01b0391205416604051908152f35b5034610886576020366003190112610886576004355f818152600360205260409020600101546001600160a01b0316330361088a575f908152602081905260409020546001600160a01b0316803b15610886575f80916004604051809481936324ab4dc160e11b83525af1801561087b5761086f575080f35b61000f91505f90610a26565b6040513d5f823e3d90fd5b5f80fd5b60405162461bcd60e51b8152602060048201526024808201527f4f6e6c792074686520636c69656e742063616e20726566756e64207468652066604482015263756e647360e01b6064820152608490fd5b34610886575f366003190112610886576020600454604051908152f35b6020366003190112610886576004355f81815260036020526040812060018101546002909101548291829182916001600160a01b03168282156109b2575bf11561097a575f5260036020525f60026040822082815582600182015501556004548015610966575f1901600455005b634e487b7160e01b5f52601160045260245ffd5b60405162461bcd60e51b815260206004820152601060248201526f2a3930b739b332b9103330b4b632b21760811b6044820152606490fd5b506108fc610936565b34610886576020366003190112610886576004355f526003602052606060405f2060018060a01b0381541690600260018060a01b036001830154169101549060405192835260208301526040820152f35b34610886575f366003190112610886576020906001548152f35b90601f8019910116810190811067ffffffffffffffff821117610a4857604052565b634e487b7160e01b5f52604160045260245ffd5b5f525f6020526004602060018060a01b0360405f205416604051928380926317249d9f60e31b82525afa90811561087b575f91610a97575090565b90506020813d602011610abe575b81610ab260209383610a26565b81010312610886575190565b3d9150610aa5565b51906001600160a01b038216820361088657565b5f198114610966576001019056fe6080601f61050b38819003918201601f19168301916001600160401b0383118484101761011c578084926060946040528339810103126101185761004281610130565b604061005060208401610130565b9201513481036100ad575f80546001600160a01b0319908116331790915560026001819055919091556003805482166001600160a01b0393841617905560048054909116929091169190911790556040516103c690816101458239f35b60405162461bcd60e51b815260206004820152603760248201527f54686520616d6f756e74206465706f7369746564206d7573742062652065717560448201527f616c20746f2074686520657363726f7720616d6f756e740000000000000000006064820152608490fd5b5f80fd5b634e487b7160e01b5f52604160045260245ffd5b51906001600160a01b03821682036101185756fe6080806040526004361015610012575f80fd5b5f3560e01c90816349569b82146102015750806369d895751461014257806383197ef0146100c3578063b924ecf8146100a65763f566066014610053575f80fd5b346100a2575f3660031901126100a2576003546004546002546001545f54604080516001600160a01b03968716815294861660208601528401929092526060830152909116608082015260a090f35b5f80fd5b346100a2575f3660031901126100a2576020600154604051908152f35b346100a2575f3660031901126100a2575f546001600160a01b0316338190036100e857ff5b60405162461bcd60e51b815260206004820152602c60248201527f4f6e6c79207468652061726269747261746f722063616e2064657374726f792060448201526b1d1a194818dbdb9d1c9858dd60a21b6064820152608490fd5b346100a2575f3660031901126100a2574780156101bc5760036001556101815f8080808560018060a01b03600454165af161017b6102e8565b5061034d565b6004546040519182526001600160a01b0316907f221c08a06b07a64803b3787861a3f276212fcccb51c2e6234077a9b8cb13047a90602090a2005b60405162461bcd60e51b815260206004820152601d60248201527f4e6f2066756e647320617661696c61626c6520746f2072656c656173650000006044820152606490fd5b346100a2575f3660031901126100a257479081156102a6576102595f808080866004600155610243828080808560018060a01b03600354165af161017b6102e8565b6004546001600160a01b03165af161017b6102e8565b6003546004546002546040805182815260208101929092526001600160a01b0392831693909216917fce1139bc38747b58ae530b811425b9b7c78341aebb4f3c26693f5e00825d086b91a3005b62461bcd60e51b815260206004820152601c60248201527f4e6f2066756e647320617661696c61626c6520746f20726566756e64000000006044820152606490fd5b3d15610348573d9067ffffffffffffffff82116103345760405191601f8101601f19908116603f0116830167ffffffffffffffff8111848210176103345760405282523d5f602084013e565b634e487b7160e01b5f52604160045260245ffd5b606090565b1561035457565b60405162461bcd60e51b81526020600482015260146024820152734661696c656420746f2073656e642066756e647360601b6044820152606490fdfea2646970667358221220ffa7ba5e091c10d93fd547f5e2b2c1b097c8cd5896be583f896e5780d59d6e4e64736f6c634300081b0033a2646970667358221220666c4d7b29346ecf26f346fef5a34f6ac5c932a15db77fd201ee5ac110ec2dc164736f6c634300081b0033",
    "sourcePath": "/Users/lukazibert/Documents/EtherWork/chain/contracts/Arbitrator.sol",
    "compiler": {
        "name": "solc",
        "version": "0.8.27+commit.40a35a09"
    },
    "functionHashes": {
        "acceptJobContract(bytes32)": "cf1870a6",
        "arbitrator()": "6cc6cde1",
        "createJobContract(bytes32,uint256)": "ac0ca0e0",
        "escrowContractCount()": "1435125c",
        "escrowContracts(bytes32)": "e5f39954",
        "getArbitratorAddress()": "e0efefd9",
        "getArbitratorBalance()": "86f4e3ce",
        "getClientAddress(bytes32)": "81073487",
        "getEscrowContractState(bytes32)": "8a4b1f48",
        "getEscrowInfo(bytes32)": "9585e82d",
        "getEscrowStatus(bytes32)": "5356d0ca",
        "getFreelancerAddress(bytes32)": "4f47e357",
        "getJobCount()": "b02b4a2f",
        "jobContractCount()": "43fc7d0c",
        "jobContracts(bytes32)": "2c51efbb",
        "refundEscrow(bytes32)": "47aed508",
        "rejectJobContract(bytes32)": "3c56f2d3",
        "releaseEscrow(bytes32)": "bf89fc61"
    },
    "gasEstimates": {
        "creation": {
            "codeDepositCost": "827400",
            "executionCost": "35109",
            "totalCost": "862509"
        },
        "external": {
            "": "461",
            "acceptJobContract(bytes32)": "infinite",
            "arbitrator()": "2442",
            "createJobContract(bytes32,uint256)": "95515",
            "escrowContractCount()": "2253",
            "escrowContracts(bytes32)": "2719",
            "getArbitratorAddress()": "2640",
            "getArbitratorBalance()": "364",
            "getClientAddress(bytes32)": "2533",
            "getEscrowContractState(bytes32)": "infinite",
            "getEscrowInfo(bytes32)": "infinite",
            "getEscrowStatus(bytes32)": "infinite",
            "getFreelancerAddress(bytes32)": "2461",
            "getJobCount()": "2550",
            "jobContractCount()": "2327",
            "jobContracts(bytes32)": "6641",
            "refundEscrow(bytes32)": "infinite",
            "rejectJobContract(bytes32)": "infinite",
            "releaseEscrow(bytes32)": "infinite"
        },
        "internal": {
            "createEscrow(address payable,address payable,uint256,bytes32)": "infinite"
        }
    }
}