{
  "_format": "hh-sol-artifact-1",
  "contractName": "Arbitrator",
  "sourceName": "contracts/Arbitrator.sol",
  "abi": [
    {
      "inputs": [],
      "stateMutability": "payable",
      "type": "constructor"
    },
    {
      "inputs": [
        {
          "internalType": "bytes32",
          "name": "_jobId",
          "type": "bytes32"
        }
      ],
      "name": "acceptJobContract",
      "outputs": [],
      "stateMutability": "payable",
      "type": "function"
    },
    {
      "inputs": [],
      "name": "arbitrator",
      "outputs": [
        {
          "internalType": "address",
          "name": "",
          "type": "address"
        }
      ],
      "stateMutability": "view",
      "type": "function"
    },
    {
      "inputs": [
        {
          "internalType": "bytes32",
          "name": "_jobId",
          "type": "bytes32"
        },
        {
          "internalType": "uint256",
          "name": "_amount",
          "type": "uint256"
        }
      ],
      "name": "createJobContract",
      "outputs": [],
      "stateMutability": "payable",
      "type": "function"
    },
    {
      "inputs": [],
      "name": "escrowContractCount",
      "outputs": [
        {
          "internalType": "uint256",
          "name": "",
          "type": "uint256"
        }
      ],
      "stateMutability": "view",
      "type": "function"
    },
    {
      "inputs": [
        {
          "internalType": "bytes32",
          "name": "",
          "type": "bytes32"
        }
      ],
      "name": "escrowContracts",
      "outputs": [
        {
          "internalType": "contract Escrow",
          "name": "",
          "type": "address"
        }
      ],
      "stateMutability": "view",
      "type": "function"
    },
    {
      "inputs": [],
      "name": "getArbitratorAddress",
      "outputs": [
        {
          "internalType": "address",
          "name": "",
          "type": "address"
        }
      ],
      "stateMutability": "view",
      "type": "function"
    },
    {
      "inputs": [],
      "name": "getArbitratorBalance",
      "outputs": [
        {
          "internalType": "uint256",
          "name": "",
          "type": "uint256"
        }
      ],
      "stateMutability": "view",
      "type": "function"
    },
    {
      "inputs": [
        {
          "internalType": "bytes32",
          "name": "jobId",
          "type": "bytes32"
        }
      ],
      "name": "getClientAddress",
      "outputs": [
        {
          "internalType": "address",
          "name": "",
          "type": "address"
        }
      ],
      "stateMutability": "view",
      "type": "function"
    },
    {
      "inputs": [
        {
          "internalType": "bytes32",
          "name": "jobId",
          "type": "bytes32"
        }
      ],
      "name": "getEscrowContractState",
      "outputs": [
        {
          "internalType": "uint256",
          "name": "",
          "type": "uint256"
        }
      ],
      "stateMutability": "view",
      "type": "function"
    },
    {
      "inputs": [
        {
          "internalType": "bytes32",
          "name": "_jobId",
          "type": "bytes32"
        }
      ],
      "name": "getEscrowStatus",
      "outputs": [
        {
          "internalType": "uint256",
          "name": "",
          "type": "uint256"
        }
      ],
      "stateMutability": "view",
      "type": "function"
    },
    {
      "inputs": [
        {
          "internalType": "bytes32",
          "name": "jobId",
          "type": "bytes32"
        }
      ],
      "name": "getFreelancerAddress",
      "outputs": [
        {
          "internalType": "address",
          "name": "",
          "type": "address"
        }
      ],
      "stateMutability": "view",
      "type": "function"
    },
    {
      "inputs": [],
      "name": "getJobCount",
      "outputs": [
        {
          "internalType": "uint256",
          "name": "",
          "type": "uint256"
        }
      ],
      "stateMutability": "view",
      "type": "function"
    },
    {
      "inputs": [],
      "name": "jobContractCount",
      "outputs": [
        {
          "internalType": "uint256",
          "name": "",
          "type": "uint256"
        }
      ],
      "stateMutability": "view",
      "type": "function"
    },
    {
      "inputs": [
        {
          "internalType": "bytes32",
          "name": "",
          "type": "bytes32"
        }
      ],
      "name": "jobContracts",
      "outputs": [
        {
          "internalType": "address",
          "name": "freelancer",
          "type": "address"
        },
        {
          "internalType": "address",
          "name": "client",
          "type": "address"
        },
        {
          "internalType": "uint256",
          "name": "amount",
          "type": "uint256"
        }
      ],
      "stateMutability": "view",
      "type": "function"
    },
    {
      "inputs": [
        {
          "internalType": "bytes32",
          "name": "_jobId",
          "type": "bytes32"
        }
      ],
      "name": "refundEscrow",
      "outputs": [],
      "stateMutability": "nonpayable",
      "type": "function"
    },
    {
      "inputs": [
        {
          "internalType": "bytes32",
          "name": "_jobId",
          "type": "bytes32"
        }
      ],
      "name": "rejectJobContract",
      "outputs": [],
      "stateMutability": "nonpayable",
      "type": "function"
    },
    {
      "inputs": [
        {
          "internalType": "bytes32",
          "name": "_jobId",
          "type": "bytes32"
        }
      ],
      "name": "releaseEscrow",
      "outputs": [],
      "stateMutability": "nonpayable",
      "type": "function"
    }
  ],
  "bytecode": "0x60806040526000600155600060045533600260006101000a81548173ffffffffffffffffffffffffffffffffffffffff021916908373ffffffffffffffffffffffffffffffffffffffff160217905550611d498061005e6000396000f3fe608060405260043610620001165760003560e01c80638107348711620000a3578063b02b4a2f116200006d578063b02b4a2f14620003ad578063bf89fc6114620003dd578063cf1870a6146200040b578063e0efefd9146200042b578063e5f39954146200045b5762000116565b80638107348714620002d557806386f4e3ce14620003195780638a4b1f481462000349578063ac0ca0e0146200038d5762000116565b806347aed50811620000e557806347aed50814620001ef5780634f47e357146200021d5780635356d0ca14620002615780636cc6cde114620002a55762000116565b80631435125c146200011b5780632c51efbb146200014b5780633c56f2d3146200019157806343fc7d0c14620001bf575b600080fd5b3480156200012857600080fd5b50620001336200049f565b60405162000142919062000f63565b60405180910390f35b3480156200015857600080fd5b5062000177600480360381019062000171919062000fc0565b620004a5565b604051620001889392919062001037565b60405180910390f35b3480156200019e57600080fd5b50620001bd6004803603810190620001b7919062000fc0565b6200050f565b005b348015620001cc57600080fd5b50620001d762000661565b604051620001e6919062000f63565b60405180910390f35b348015620001fc57600080fd5b506200021b600480360381019062000215919062000fc0565b62000667565b005b3480156200022a57600080fd5b5062000249600480360381019062000243919062000fc0565b62000791565b60405162000258919062001074565b60405180910390f35b3480156200026e57600080fd5b506200028d600480360381019062000287919062000fc0565b620007d1565b6040516200029c919062000f63565b60405180910390f35b348015620002b257600080fd5b50620002bd62000911565b604051620002cc919062001074565b60405180910390f35b348015620002e257600080fd5b50620003016004803603810190620002fb919062000fc0565b62000937565b60405162000310919062001074565b60405180910390f35b3480156200032657600080fd5b506200033162000977565b60405162000340919062000f63565b60405180910390f35b3480156200035657600080fd5b506200037560048036038101906200036f919062000fc0565b6200097f565b60405162000384919062000f63565b60405180910390f35b620003ab6004803603810190620003a59190620010c2565b62000a2c565b005b348015620003ba57600080fd5b50620003c562000b85565b604051620003d4919062000f63565b60405180910390f35b348015620003ea57600080fd5b5062000409600480360381019062000403919062000fc0565b62000b8f565b005b62000429600480360381019062000423919062000fc0565b62000cb9565b005b3480156200043857600080fd5b506200044362000e24565b60405162000452919062001074565b60405180910390f35b3480156200046857600080fd5b5062000487600480360381019062000481919062000fc0565b62000e4e565b60405162000496919062001174565b60405180910390f35b60015481565b60036020528060005260406000206000915090508060000160009054906101000a900473ffffffffffffffffffffffffffffffffffffffff16908060010160009054906101000a900473ffffffffffffffffffffffffffffffffffffffff16908060020154905083565b60006003600083815260200190815260200160002060010160009054906101000a900473ffffffffffffffffffffffffffffffffffffffff1673ffffffffffffffffffffffffffffffffffffffff166108fc60036000858152602001908152602001600020600201549081150290604051600060405180830381858888f19350505050905080620005d7576040517f08c379a0000000000000000000000000000000000000000000000000000000008152600401620005ce90620011f2565b60405180910390fd5b60036000838152602001908152602001600020600080820160006101000a81549073ffffffffffffffffffffffffffffffffffffffff02191690556001820160006101000a81549073ffffffffffffffffffffffffffffffffffffffff02191690556002820160009055505060046000815480929190620006589062001243565b91905055505050565b60045481565b600260009054906101000a900473ffffffffffffffffffffffffffffffffffffffff1673ffffffffffffffffffffffffffffffffffffffff163373ffffffffffffffffffffffffffffffffffffffff1614620006fa576040517f08c379a0000000000000000000000000000000000000000000000000000000008152600401620006f190620012e7565b60405180910390fd5b60008082815260200190815260200160002060009054906101000a900473ffffffffffffffffffffffffffffffffffffffff1673ffffffffffffffffffffffffffffffffffffffff166349569b826040518163ffffffff1660e01b8152600401600060405180830381600087803b1580156200077557600080fd5b505af11580156200078a573d6000803e3d6000fd5b5050505050565b60006003600083815260200190815260200160002060000160009054906101000a900473ffffffffffffffffffffffffffffffffffffffff169050919050565b6000600260009054906101000a900473ffffffffffffffffffffffffffffffffffffffff1673ffffffffffffffffffffffffffffffffffffffff163373ffffffffffffffffffffffffffffffffffffffff161462000866576040517f08c379a00000000000000000000000000000000000000000000000000000000081526004016200085d90620012e7565b60405180910390fd5b60008083815260200190815260200160002060009054906101000a900473ffffffffffffffffffffffffffffffffffffffff1673ffffffffffffffffffffffffffffffffffffffff1663b924ecf86040518163ffffffff1660e01b8152600401602060405180830381865afa158015620008e4573d6000803e3d6000fd5b505050506040513d601f19601f820116820180604052508101906200090a919062001320565b9050919050565b600260009054906101000a900473ffffffffffffffffffffffffffffffffffffffff1681565b60006003600083815260200190815260200160002060010160009054906101000a900473ffffffffffffffffffffffffffffffffffffffff169050919050565b600047905090565b600080600083815260200190815260200160002060009054906101000a900473ffffffffffffffffffffffffffffffffffffffff1673ffffffffffffffffffffffffffffffffffffffff1663b924ecf86040518163ffffffff1660e01b8152600401602060405180830381865afa158015620009ff573d6000803e3d6000fd5b505050506040513d601f19601f8201168201806040525081019062000a25919062001320565b9050919050565b80341462000a71576040517f08c379a000000000000000000000000000000000000000000000000000000000815260040162000a6890620013c8565b60405180910390fd5b6040518060600160405280600073ffffffffffffffffffffffffffffffffffffffff1681526020013373ffffffffffffffffffffffffffffffffffffffff168152602001828152506003600084815260200190815260200160002060008201518160000160006101000a81548173ffffffffffffffffffffffffffffffffffffffff021916908373ffffffffffffffffffffffffffffffffffffffff16021790555060208201518160010160006101000a81548173ffffffffffffffffffffffffffffffffffffffff021916908373ffffffffffffffffffffffffffffffffffffffff160217905550604082015181600201559050506004600081548092919062000b7c90620013ea565b91905055505050565b6000600454905090565b600260009054906101000a900473ffffffffffffffffffffffffffffffffffffffff1673ffffffffffffffffffffffffffffffffffffffff163373ffffffffffffffffffffffffffffffffffffffff161462000c22576040517f08c379a000000000000000000000000000000000000000000000000000000000815260040162000c1990620012e7565b60405180910390fd5b60008082815260200190815260200160002060009054906101000a900473ffffffffffffffffffffffffffffffffffffffff1673ffffffffffffffffffffffffffffffffffffffff166369d895756040518163ffffffff1660e01b8152600401600060405180830381600087803b15801562000c9d57600080fd5b505af115801562000cb2573d6000803e3d6000fd5b5050505050565b6003600082815260200190815260200160002060020154341462000d14576040517f08c379a000000000000000000000000000000000000000000000000000000000815260040162000d0b90620014ad565b60405180910390fd5b336003600083815260200190815260200160002060000160006101000a81548173ffffffffffffffffffffffffffffffffffffffff021916908373ffffffffffffffffffffffffffffffffffffffff16021790555062000e076003600083815260200190815260200160002060010160009054906101000a900473ffffffffffffffffffffffffffffffffffffffff166003600084815260200190815260200160002060000160009054906101000a900473ffffffffffffffffffffffffffffffffffffffff166002600360008681526020019081526020016000206002015462000e009190620014cf565b8462000e81565b6001600081548092919062000e1c90620013ea565b919050555050565b6000600260009054906101000a900473ffffffffffffffffffffffffffffffffffffffff16905090565b60006020528060005260406000206000915054906101000a900473ffffffffffffffffffffffffffffffffffffffff1681565b6002600360008381526020019081526020016000206002015462000ea69190620014cf565b84848460405162000eb79062000f3a565b62000ec5939291906200153f565b6040518091039082f090508015801562000ee3573d6000803e3d6000fd5b5060008083815260200190815260200160002060006101000a81548173ffffffffffffffffffffffffffffffffffffffff021916908373ffffffffffffffffffffffffffffffffffffffff16021790555050505050565b610797806200157d83390190565b6000819050919050565b62000f5d8162000f48565b82525050565b600060208201905062000f7a600083018462000f52565b92915050565b600080fd5b6000819050919050565b62000f9a8162000f85565b811462000fa657600080fd5b50565b60008135905062000fba8162000f8f565b92915050565b60006020828403121562000fd95762000fd862000f80565b5b600062000fe98482850162000fa9565b91505092915050565b600073ffffffffffffffffffffffffffffffffffffffff82169050919050565b60006200101f8262000ff2565b9050919050565b620010318162001012565b82525050565b60006060820190506200104e600083018662001026565b6200105d602083018562001026565b6200106c604083018462000f52565b949350505050565b60006020820190506200108b600083018462001026565b92915050565b6200109c8162000f48565b8114620010a857600080fd5b50565b600081359050620010bc8162001091565b92915050565b60008060408385031215620010dc57620010db62000f80565b5b6000620010ec8582860162000fa9565b9250506020620010ff85828601620010ab565b9150509250929050565b6000819050919050565b6000620011346200112e620011288462000ff2565b62001109565b62000ff2565b9050919050565b6000620011488262001113565b9050919050565b60006200115c826200113b565b9050919050565b6200116e816200114f565b82525050565b60006020820190506200118b600083018462001163565b92915050565b600082825260208201905092915050565b7f5472616e73666572206661696c65642e00000000000000000000000000000000600082015250565b6000620011da60108362001191565b9150620011e782620011a2565b602082019050919050565b600060208201905081810360008301526200120d81620011cb565b9050919050565b7f4e487b7100000000000000000000000000000000000000000000000000000000600052601160045260246000fd5b6000620012508262000f48565b91506000820362001266576200126562001214565b5b600182039050919050565b7f4f6e6c79207468652061726269747261746f722063616e2063616c6c2074686960008201527f732066756e6374696f6e00000000000000000000000000000000000000000000602082015250565b6000620012cf602a8362001191565b9150620012dc8262001271565b604082019050919050565b600060208201905081810360008301526200130281620012c0565b9050919050565b6000815190506200131a8162001091565b92915050565b60006020828403121562001339576200133862000f80565b5b6000620013498482850162001309565b91505092915050565b7f54686520616d6f756e74206465706f7369746564206d7573742062652065717560008201527f616c20746f20746865206a6f6220616d6f756e74000000000000000000000000602082015250565b6000620013b060348362001191565b9150620013bd8262001352565b604082019050919050565b60006020820190508181036000830152620013e381620013a1565b9050919050565b6000620013f78262000f48565b91507fffffffffffffffffffffffffffffffffffffffffffffffffffffffffffffffff82036200142c576200142b62001214565b5b600182019050919050565b7f54686520616d6f756e74206465706f7369746564206d7573742062652065717560008201527f616c20746f2074686520657363726f7720616d6f756e74000000000000000000602082015250565b60006200149560378362001191565b9150620014a28262001437565b604082019050919050565b60006020820190508181036000830152620014c88162001486565b9050919050565b6000620014dc8262000f48565b9150620014e98362000f48565b9250828202620014f98162000f48565b9150828204841483151762001513576200151262001214565b5b5092915050565b6000620015278262000ff2565b9050919050565b62001539816200151a565b82525050565b60006060820190506200155660008301866200152e565b6200156560208301856200152e565b62001574604083018462000f52565b94935050505056fe60806040526000600155604051610797380380610797833981810160405281019061002a91906101de565b34811461006c576040517f08c379a0000000000000000000000000000000000000000000000000000000008152600401610063906102b4565b60405180910390fd5b336000806101000a81548173ffffffffffffffffffffffffffffffffffffffff021916908373ffffffffffffffffffffffffffffffffffffffff16021790555060026001819055508060028190555082600360006101000a81548173ffffffffffffffffffffffffffffffffffffffff021916908373ffffffffffffffffffffffffffffffffffffffff16021790555081600460006101000a81548173ffffffffffffffffffffffffffffffffffffffff021916908373ffffffffffffffffffffffffffffffffffffffff1602179055505050506102d4565b600080fd5b600073ffffffffffffffffffffffffffffffffffffffff82169050919050565b60006101758261014a565b9050919050565b6101858161016a565b811461019057600080fd5b50565b6000815190506101a28161017c565b92915050565b6000819050919050565b6101bb816101a8565b81146101c657600080fd5b50565b6000815190506101d8816101b2565b92915050565b6000806000606084860312156101f7576101f6610145565b5b600061020586828701610193565b935050602061021686828701610193565b9250506040610227868287016101c9565b9150509250925092565b600082825260208201905092915050565b7f54686520616d6f756e74206465706f7369746564206d7573742062652065717560008201527f616c20746f2074686520657363726f7720616d6f756e74000000000000000000602082015250565b600061029e603783610231565b91506102a982610242565b604082019050919050565b600060208201905081810360008301526102cd81610291565b9050919050565b6104b4806102e36000396000f3fe608060405234801561001057600080fd5b506004361061004c5760003560e01c806349569b821461005157806369d895751461005b57806383197ef014610065578063b924ecf81461006f575b600080fd5b61005961008d565b005b6100636101b2565b005b61006d61026a565b005b610077610331565b6040516100849190610354565b60405180910390f35b6002600154146100d2576040517f08c379a00000000000000000000000000000000000000000000000000000000081526004016100c9906103cc565b60405180910390fd5b6004600181905550600360009054906101000a900473ffffffffffffffffffffffffffffffffffffffff1673ffffffffffffffffffffffffffffffffffffffff166108fc6002549081150290604051600060405180830381858888f19350505050158015610144573d6000803e3d6000fd5b50600460009054906101000a900473ffffffffffffffffffffffffffffffffffffffff1673ffffffffffffffffffffffffffffffffffffffff166108fc6002549081150290604051600060405180830381858888f193505050501580156101af573d6000803e3d6000fd5b50565b6002600154146101f7576040517f08c379a00000000000000000000000000000000000000000000000000000000081526004016101ee906103cc565b60405180910390fd5b6003600181905550600460009054906101000a900473ffffffffffffffffffffffffffffffffffffffff1673ffffffffffffffffffffffffffffffffffffffff166108fc479081150290604051600060405180830381858888f19350505050158015610267573d6000803e3d6000fd5b50565b60008054906101000a900473ffffffffffffffffffffffffffffffffffffffff1673ffffffffffffffffffffffffffffffffffffffff163373ffffffffffffffffffffffffffffffffffffffff16146102f8576040517f08c379a00000000000000000000000000000000000000000000000000000000081526004016102ef9061045e565b60405180910390fd5b60008054906101000a900473ffffffffffffffffffffffffffffffffffffffff1673ffffffffffffffffffffffffffffffffffffffff16ff5b6000600154905090565b6000819050919050565b61034e8161033b565b82525050565b60006020820190506103696000830184610345565b92915050565b600082825260208201905092915050565b7f457363726f77206973206e6f7420706179656420666f72000000000000000000600082015250565b60006103b660178361036f565b91506103c182610380565b602082019050919050565b600060208201905081810360008301526103e5816103a9565b9050919050565b7f4f6e6c79207468652061726269747261746f722063616e2064657374726f792060008201527f74686520636f6e74726163740000000000000000000000000000000000000000602082015250565b6000610448602c8361036f565b9150610453826103ec565b604082019050919050565b600060208201905081810360008301526104778161043b565b905091905056fea2646970667358221220589c21b50a1cf5606194243b88c2cd19aee542548afa2c3b29452b81c783d3a264736f6c63430008110033a26469706673582212205d5e70bc06d3319a4ac12a9ddff7671541d8d99402483b5ddc0cb5be72559b3464736f6c63430008110033",
  "linkReferences": {},
  "deployedLinkReferences": {}
}